{
  "_format": "hh-sol-artifact-1",
  "contractName": "ArtworkFactory",
  "sourceName": "contracts/ArtworkFactory.sol",
  "abi": [
    {
      "anonymous": false,
      "inputs": [
        {
          "indexed": true,
          "internalType": "address",
          "name": "owner",
          "type": "address"
        },
        {
          "indexed": true,
          "internalType": "address",
          "name": "approved",
          "type": "address"
        },
        {
          "indexed": true,
          "internalType": "uint256",
          "name": "tokenId",
          "type": "uint256"
        }
      ],
      "name": "Approval",
      "type": "event"
    },
    {
      "anonymous": false,
      "inputs": [
        {
          "indexed": true,
          "internalType": "address",
          "name": "owner",
          "type": "address"
        },
        {
          "indexed": true,
          "internalType": "address",
          "name": "operator",
          "type": "address"
        },
        {
          "indexed": false,
          "internalType": "bool",
          "name": "approved",
          "type": "bool"
        }
      ],
      "name": "ApprovalForAll",
      "type": "event"
    },
    {
      "anonymous": false,
      "inputs": [
        {
          "indexed": false,
          "internalType": "uint256",
          "name": "artworkId",
          "type": "uint256"
        },
        {
          "indexed": false,
          "internalType": "address",
          "name": "artist",
          "type": "address"
        },
        {
          "indexed": false,
          "internalType": "uint256",
          "name": "price",
          "type": "uint256"
        }
      ],
      "name": "ArtworkCreated",
      "type": "event"
    },
    {
      "anonymous": false,
      "inputs": [
        {
          "indexed": false,
          "internalType": "uint256",
          "name": "artworkId",
          "type": "uint256"
        },
        {
          "indexed": false,
          "internalType": "uint256",
          "name": "price",
          "type": "uint256"
        }
      ],
      "name": "ArtworkPriceSet",
      "type": "event"
    },
    {
      "anonymous": false,
      "inputs": [
        {
          "indexed": false,
          "internalType": "uint256",
          "name": "artworkId",
          "type": "uint256"
        },
        {
          "indexed": false,
          "internalType": "address",
          "name": "oldOwner",
          "type": "address"
        },
        {
          "indexed": false,
          "internalType": "address",
          "name": "newOwner",
          "type": "address"
        },
        {
          "indexed": false,
          "internalType": "uint256",
          "name": "price",
          "type": "uint256"
        }
      ],
      "name": "ArtworkSold",
      "type": "event"
    },
    {
      "anonymous": false,
      "inputs": [
        {
          "indexed": true,
          "internalType": "address",
          "name": "from",
          "type": "address"
        },
        {
          "indexed": true,
          "internalType": "address",
          "name": "to",
          "type": "address"
        },
        {
          "indexed": true,
          "internalType": "uint256",
          "name": "tokenId",
          "type": "uint256"
        }
      ],
      "name": "Transfer",
      "type": "event"
    },
    {
      "inputs": [
        {
          "internalType": "address",
          "name": "to",
          "type": "address"
        },
        {
          "internalType": "uint256",
          "name": "tokenId",
          "type": "uint256"
        }
      ],
      "name": "approve",
      "outputs": [],
      "stateMutability": "nonpayable",
      "type": "function"
    },
    {
      "inputs": [
        {
          "internalType": "uint256",
          "name": "",
          "type": "uint256"
        }
      ],
      "name": "artworkToCurrentPrice",
      "outputs": [
        {
          "internalType": "uint256",
          "name": "",
          "type": "uint256"
        }
      ],
      "stateMutability": "view",
      "type": "function"
    },
    {
      "inputs": [
        {
          "internalType": "address",
          "name": "owner",
          "type": "address"
        }
      ],
      "name": "balanceOf",
      "outputs": [
        {
          "internalType": "uint256",
          "name": "",
          "type": "uint256"
        }
      ],
      "stateMutability": "view",
      "type": "function"
    },
    {
      "inputs": [],
      "name": "baseURI",
      "outputs": [
        {
          "internalType": "string",
          "name": "",
          "type": "string"
        }
      ],
      "stateMutability": "view",
      "type": "function"
    },
    {
      "inputs": [
        {
          "internalType": "uint256",
          "name": "_artworkId",
          "type": "uint256"
        }
      ],
      "name": "buyArtwork",
      "outputs": [],
      "stateMutability": "payable",
      "type": "function"
    },
    {
      "inputs": [
        {
          "internalType": "string",
          "name": "_tokenURI",
          "type": "string"
        },
        {
          "internalType": "uint256",
          "name": "_price",
          "type": "uint256"
        }
      ],
      "name": "createArtwork",
      "outputs": [],
      "stateMutability": "nonpayable",
      "type": "function"
    },
    {
      "inputs": [
        {
          "internalType": "address",
          "name": "",
          "type": "address"
        }
      ],
      "name": "failedTransferCredits",
      "outputs": [
        {
          "internalType": "uint256",
          "name": "",
          "type": "uint256"
        }
      ],
      "stateMutability": "view",
      "type": "function"
    },
    {
      "inputs": [
        {
          "internalType": "uint256",
          "name": "tokenId",
          "type": "uint256"
        }
      ],
      "name": "getApproved",
      "outputs": [
        {
          "internalType": "address",
          "name": "",
          "type": "address"
        }
      ],
      "stateMutability": "view",
      "type": "function"
    },
    {
      "inputs": [
        {
          "internalType": "uint256",
          "name": "_artworkId",
          "type": "uint256"
        }
      ],
      "name": "getPrice",
      "outputs": [
        {
          "internalType": "uint256",
          "name": "",
          "type": "uint256"
        }
      ],
      "stateMutability": "view",
      "type": "function"
    },
    {
      "inputs": [
        {
          "internalType": "string",
          "name": "name",
          "type": "string"
        },
        {
          "internalType": "string",
          "name": "symbol",
          "type": "string"
        }
      ],
      "name": "initialize",
      "outputs": [],
      "stateMutability": "nonpayable",
      "type": "function"
    },
    {
      "inputs": [
        {
          "internalType": "address",
          "name": "owner",
          "type": "address"
        },
        {
          "internalType": "address",
          "name": "operator",
          "type": "address"
        }
      ],
      "name": "isApprovedForAll",
      "outputs": [
        {
          "internalType": "bool",
          "name": "",
          "type": "bool"
        }
      ],
      "stateMutability": "view",
      "type": "function"
    },
    {
      "inputs": [],
      "name": "name",
      "outputs": [
        {
          "internalType": "string",
          "name": "",
          "type": "string"
        }
      ],
      "stateMutability": "view",
      "type": "function"
    },
    {
      "inputs": [
        {
          "internalType": "uint256",
          "name": "tokenId",
          "type": "uint256"
        }
      ],
      "name": "ownerOf",
      "outputs": [
        {
          "internalType": "address",
          "name": "",
          "type": "address"
        }
      ],
      "stateMutability": "view",
      "type": "function"
    },
    {
      "inputs": [],
      "name": "platform",
      "outputs": [
        {
          "internalType": "address payable",
          "name": "",
          "type": "address"
        }
      ],
      "stateMutability": "view",
      "type": "function"
    },
    {
      "inputs": [
        {
          "internalType": "address",
          "name": "from",
          "type": "address"
        },
        {
          "internalType": "address",
          "name": "to",
          "type": "address"
        },
        {
          "internalType": "uint256",
          "name": "tokenId",
          "type": "uint256"
        }
      ],
      "name": "safeTransferFrom",
      "outputs": [],
      "stateMutability": "nonpayable",
      "type": "function"
    },
    {
      "inputs": [
        {
          "internalType": "address",
          "name": "from",
          "type": "address"
        },
        {
          "internalType": "address",
          "name": "to",
          "type": "address"
        },
        {
          "internalType": "uint256",
          "name": "tokenId",
          "type": "uint256"
        },
        {
          "internalType": "bytes",
          "name": "_data",
          "type": "bytes"
        }
      ],
      "name": "safeTransferFrom",
      "outputs": [],
      "stateMutability": "nonpayable",
      "type": "function"
    },
    {
      "inputs": [
        {
          "internalType": "address",
          "name": "operator",
          "type": "address"
        },
        {
          "internalType": "bool",
          "name": "approved",
          "type": "bool"
        }
      ],
      "name": "setApprovalForAll",
      "outputs": [],
      "stateMutability": "nonpayable",
      "type": "function"
    },
    {
      "inputs": [
        {
          "internalType": "uint256",
          "name": "_artworkId",
          "type": "uint256"
        },
        {
          "internalType": "uint256",
          "name": "_price",
          "type": "uint256"
        }
      ],
      "name": "setPrice",
      "outputs": [],
      "stateMutability": "nonpayable",
      "type": "function"
    },
    {
      "inputs": [
        {
          "internalType": "bytes4",
          "name": "interfaceId",
          "type": "bytes4"
        }
      ],
      "name": "supportsInterface",
      "outputs": [
        {
          "internalType": "bool",
          "name": "",
          "type": "bool"
        }
      ],
      "stateMutability": "view",
      "type": "function"
    },
    {
      "inputs": [],
      "name": "symbol",
      "outputs": [
        {
          "internalType": "string",
          "name": "",
          "type": "string"
        }
      ],
      "stateMutability": "view",
      "type": "function"
    },
    {
      "inputs": [
        {
          "internalType": "uint256",
          "name": "index",
          "type": "uint256"
        }
      ],
      "name": "tokenByIndex",
      "outputs": [
        {
          "internalType": "uint256",
          "name": "",
          "type": "uint256"
        }
      ],
      "stateMutability": "view",
      "type": "function"
    },
    {
      "inputs": [
        {
          "internalType": "address",
          "name": "owner",
          "type": "address"
        },
        {
          "internalType": "uint256",
          "name": "index",
          "type": "uint256"
        }
      ],
      "name": "tokenOfOwnerByIndex",
      "outputs": [
        {
          "internalType": "uint256",
          "name": "",
          "type": "uint256"
        }
      ],
      "stateMutability": "view",
      "type": "function"
    },
    {
      "inputs": [
        {
          "internalType": "uint256",
          "name": "tokenId",
          "type": "uint256"
        }
      ],
      "name": "tokenURI",
      "outputs": [
        {
          "internalType": "string",
          "name": "",
          "type": "string"
        }
      ],
      "stateMutability": "view",
      "type": "function"
    },
    {
      "inputs": [],
      "name": "totalSupply",
      "outputs": [
        {
          "internalType": "uint256",
          "name": "",
          "type": "uint256"
        }
      ],
      "stateMutability": "view",
      "type": "function"
    },
    {
      "inputs": [
        {
          "internalType": "address",
          "name": "from",
          "type": "address"
        },
        {
          "internalType": "address",
          "name": "to",
          "type": "address"
        },
        {
          "internalType": "uint256",
          "name": "tokenId",
          "type": "uint256"
        }
      ],
      "name": "transferFrom",
      "outputs": [],
      "stateMutability": "nonpayable",
      "type": "function"
    }
  ],
  "bytecode": "0x608060405234801561001057600080fd5b50613dda806100206000396000f3fe6080604052600436106101665760003560e01c80635a582260116100d1578063a64725dd1161008a578063e44c3c4b11610064578063e44c3c4b14610c3d578063e757223014610c6b578063e985e9c514610cba578063f7d9757714610d4157610166565b8063a64725dd146109a5578063b88d4fde14610a77578063c87b56dd14610b8957610166565b80635a582260146106f95780636352211e1461075e5780636c0360eb146107c357806370a082311461085357806395d89b41146108b8578063a22cb4651461094857610166565b806323b872dd1161012357806323b872dd146103a55780632f745c591461042057806342842e0e1461048f5780634bde38c81461050a5780634cd88b761461054b5780634f6ccce7146106aa57610166565b806301ffc9a71461016b57806306fdde03146101db578063081812fc1461026b578063095ea7b3146102d05780630bd1fa481461032b57806318160ddd1461037a575b600080fd5b34801561017757600080fd5b506101c36004803603602081101561018e57600080fd5b8101908080357bffffffffffffffffffffffffffffffffffffffffffffffffffffffff19169060200190929190505050610d86565b60405180821515815260200191505060405180910390f35b3480156101e757600080fd5b506101f0610dee565b6040518080602001828103825283818151815260200191508051906020019080838360005b83811015610230578082015181840152602081019050610215565b50505050905090810190601f16801561025d5780820380516001836020036101000a031916815260200191505b509250505060405180910390f35b34801561027757600080fd5b506102a46004803603602081101561028e57600080fd5b8101908080359060200190929190505050610e90565b604051808273ffffffffffffffffffffffffffffffffffffffff16815260200191505060405180910390f35b3480156102dc57600080fd5b50610329600480360360408110156102f357600080fd5b81019080803573ffffffffffffffffffffffffffffffffffffffff16906020019092919080359060200190929190505050610f2b565b005b34801561033757600080fd5b506103646004803603602081101561034e57600080fd5b810190808035906020019092919050505061106f565b6040518082815260200191505060405180910390f35b34801561038657600080fd5b5061038f611087565b6040518082815260200191505060405180910390f35b3480156103b157600080fd5b5061041e600480360360608110156103c857600080fd5b81019080803573ffffffffffffffffffffffffffffffffffffffff169060200190929190803573ffffffffffffffffffffffffffffffffffffffff16906020019092919080359060200190929190505050611098565b005b34801561042c57600080fd5b506104796004803603604081101561044357600080fd5b81019080803573ffffffffffffffffffffffffffffffffffffffff1690602001909291908035906020019092919050505061110e565b6040518082815260200191505060405180910390f35b34801561049b57600080fd5b50610508600480360360608110156104b257600080fd5b81019080803573ffffffffffffffffffffffffffffffffffffffff169060200190929190803573ffffffffffffffffffffffffffffffffffffffff16906020019092919080359060200190929190505050611169565b005b34801561051657600080fd5b5061051f611189565b604051808273ffffffffffffffffffffffffffffffffffffffff16815260200191505060405180910390f35b34801561055757600080fd5b506106a86004803603604081101561056e57600080fd5b810190808035906020019064010000000081111561058b57600080fd5b82018360208201111561059d57600080fd5b803590602001918460018302840111640100000000831117156105bf57600080fd5b91908080601f016020809104026020016040519081016040528093929190818152602001838380828437600081840152601f19601f8201169050808301925050505050505091929192908035906020019064010000000081111561062257600080fd5b82018360208201111561063457600080fd5b8035906020019184600183028401116401000000008311171561065657600080fd5b91908080601f016020809104026020016040519081016040528093929190818152602001838380828437600081840152601f19601f8201169050808301925050505050505091929192905050506111af565b005b3480156106b657600080fd5b506106e3600480360360208110156106cd57600080fd5b8101908080359060200190929190505050611302565b6040518082815260200191505060405180910390f35b34801561070557600080fd5b506107486004803603602081101561071c57600080fd5b81019080803573ffffffffffffffffffffffffffffffffffffffff169060200190929190505050611325565b6040518082815260200191505060405180910390f35b34801561076a57600080fd5b506107976004803603602081101561078157600080fd5b810190808035906020019092919050505061133d565b604051808273ffffffffffffffffffffffffffffffffffffffff16815260200191505060405180910390f35b3480156107cf57600080fd5b506107d8611374565b6040518080602001828103825283818151815260200191508051906020019080838360005b838110156108185780820151818401526020810190506107fd565b50505050905090810190601f1680156108455780820380516001836020036101000a031916815260200191505b509250505060405180910390f35b34801561085f57600080fd5b506108a26004803603602081101561087657600080fd5b81019080803573ffffffffffffffffffffffffffffffffffffffff169060200190929190505050611416565b6040518082815260200191505060405180910390f35b3480156108c457600080fd5b506108cd6114eb565b6040518080602001828103825283818151815260200191508051906020019080838360005b8381101561090d5780820151818401526020810190506108f2565b50505050905090810190601f16801561093a5780820380516001836020036101000a031916815260200191505b509250505060405180910390f35b34801561095457600080fd5b506109a36004803603604081101561096b57600080fd5b81019080803573ffffffffffffffffffffffffffffffffffffffff16906020019092919080351515906020019092919050505061158d565b005b3480156109b157600080fd5b50610a75600480360360408110156109c857600080fd5b81019080803590602001906401000000008111156109e557600080fd5b8201836020820111156109f757600080fd5b80359060200191846001830284011164010000000083111715610a1957600080fd5b91908080601f016020809104026020016040519081016040528093929190818152602001838380828437600081840152601f19601f82011690508083019250505050505050919291929080359060200190929190505050611743565b005b348015610a8357600080fd5b50610b8760048036036080811015610a9a57600080fd5b81019080803573ffffffffffffffffffffffffffffffffffffffff169060200190929190803573ffffffffffffffffffffffffffffffffffffffff1690602001909291908035906020019092919080359060200190640100000000811115610b0157600080fd5b820183602082011115610b1357600080fd5b80359060200191846001830284011164010000000083111715610b3557600080fd5b91908080601f016020809104026020016040519081016040528093929190818152602001838380828437600081840152601f19601f8201169050808301925050505050505091929192905050506117e9565b005b348015610b9557600080fd5b50610bc260048036036020811015610bac57600080fd5b8101908080359060200190929190505050611861565b6040518080602001828103825283818151815260200191508051906020019080838360005b83811015610c02578082015181840152602081019050610be7565b50505050905090810190601f168015610c2f5780820380516001836020036101000a031916815260200191505b509250505060405180910390f35b610c6960048036036020811015610c5357600080fd5b8101908080359060200190929190505050611b32565b005b348015610c7757600080fd5b50610ca460048036036020811015610c8e57600080fd5b8101908080359060200190929190505050611d65565b6040518082815260200191505060405180910390f35b348015610cc657600080fd5b50610d2960048036036040811015610cdd57600080fd5b81019080803573ffffffffffffffffffffffffffffffffffffffff169060200190929190803573ffffffffffffffffffffffffffffffffffffffff169060200190929190505050611d82565b60405180821515815260200191505060405180910390f35b348015610d4d57600080fd5b50610d8460048036036040811015610d6457600080fd5b810190808035906020019092919080359060200190929190505050611e16565b005b600060336000837bffffffffffffffffffffffffffffffffffffffffffffffffffffffff19167bffffffffffffffffffffffffffffffffffffffffffffffffffffffff1916815260200190815260200160002060009054906101000a900460ff169050919050565b6060606a8054600181600116156101000203166002900480601f016020809104026020016040519081016040528092919081815260200182805460018160011615610100020316600290048015610e865780601f10610e5b57610100808354040283529160200191610e86565b820191906000526020600020905b815481529060010190602001808311610e6957829003601f168201915b5050505050905090565b6000610e9b82611eb1565b610ef0576040517f08c379a000000000000000000000000000000000000000000000000000000000815260040180806020018281038252602c815260200180613ca3602c913960400191505060405180910390fd5b6068600083815260200190815260200160002060009054906101000a900473ffffffffffffffffffffffffffffffffffffffff169050919050565b6000610f368261133d565b90508073ffffffffffffffffffffffffffffffffffffffff168373ffffffffffffffffffffffffffffffffffffffff161415610fbd576040517f08c379a0000000000000000000000000000000000000000000000000000000008152600401808060200182810382526021815260200180613d536021913960400191505060405180910390fd5b8073ffffffffffffffffffffffffffffffffffffffff16610fdc611ece565b73ffffffffffffffffffffffffffffffffffffffff16148061100b575061100a81611005611ece565b611d82565b5b611060576040517f08c379a0000000000000000000000000000000000000000000000000000000008152600401808060200182810382526038815260200180613ba76038913960400191505060405180910390fd5b61106a8383611ed6565b505050565b60996020528060005260406000206000915090505481565b60006110936066611f8f565b905090565b6110a96110a3611ece565b82611fa4565b6110fe576040517f08c379a0000000000000000000000000000000000000000000000000000000008152600401808060200182810382526031815260200180613d746031913960400191505060405180910390fd5b611109838383612098565b505050565b600061116182606560008673ffffffffffffffffffffffffffffffffffffffff1673ffffffffffffffffffffffffffffffffffffffff1681526020019081526020016000206122db90919063ffffffff16565b905092915050565b611184838383604051806020016040528060008152506117e9565b505050565b609760009054906101000a900473ffffffffffffffffffffffffffffffffffffffff1681565b600060019054906101000a900460ff16806111ce57506111cd6122f5565b5b806111e4575060008054906101000a900460ff16155b611239576040517f08c379a000000000000000000000000000000000000000000000000000000000815260040180806020018281038252602e815260200180613c32602e913960400191505060405180910390fd5b60008060019054906101000a900460ff161590508015611289576001600060016101000a81548160ff02191690831515021790555060016000806101000a81548160ff0219169083151502179055505b6112938383612306565b33609760006101000a81548173ffffffffffffffffffffffffffffffffffffffff021916908373ffffffffffffffffffffffffffffffffffffffff160217905550600a60988190555080156112fd5760008060016101000a81548160ff0219169083151502179055505b505050565b60008061131983606661242090919063ffffffff16565b50905080915050919050565b609a6020528060005260406000206000915090505481565b600061136d82604051806060016040528060298152602001613c0960299139606661244c9092919063ffffffff16565b9050919050565b6060606d8054600181600116156101000203166002900480601f01602080910402602001604051908101604052809291908181526020018280546001816001161561010002031660029004801561140c5780601f106113e15761010080835404028352916020019161140c565b820191906000526020600020905b8154815290600101906020018083116113ef57829003601f168201915b5050505050905090565b60008073ffffffffffffffffffffffffffffffffffffffff168273ffffffffffffffffffffffffffffffffffffffff16141561149d576040517f08c379a000000000000000000000000000000000000000000000000000000000815260040180806020018281038252602a815260200180613bdf602a913960400191505060405180910390fd5b6114e4606560008473ffffffffffffffffffffffffffffffffffffffff1673ffffffffffffffffffffffffffffffffffffffff16815260200190815260200160002061246b565b9050919050565b6060606b8054600181600116156101000203166002900480601f0160208091040260200160405190810160405280929190818152602001828054600181600116156101000203166002900480156115835780601f1061155857610100808354040283529160200191611583565b820191906000526020600020905b81548152906001019060200180831161156657829003601f168201915b5050505050905090565b611595611ece565b73ffffffffffffffffffffffffffffffffffffffff168273ffffffffffffffffffffffffffffffffffffffff161415611636576040517f08c379a00000000000000000000000000000000000000000000000000000000081526004018080602001828103825260198152602001807f4552433732313a20617070726f766520746f2063616c6c65720000000000000081525060200191505060405180910390fd5b8060696000611643611ece565b73ffffffffffffffffffffffffffffffffffffffff1673ffffffffffffffffffffffffffffffffffffffff16815260200190815260200160002060008473ffffffffffffffffffffffffffffffffffffffff1673ffffffffffffffffffffffffffffffffffffffff16815260200190815260200160002060006101000a81548160ff0219169083151502179055508173ffffffffffffffffffffffffffffffffffffffff166116f0611ece565b73ffffffffffffffffffffffffffffffffffffffff167f17307eab39ab6107e8899845ad3d59bd9653f200f220920489ca2b5937696c318360405180821515815260200191505060405180910390a35050565b61174d609b612480565b6000611759609b612496565b905061176533826124a4565b61176f8184612698565b8160996000838152602001908152602001600020819055507f97342b1c897ea68e7e140dcd6c30700e71d70cd8ea137d03412dca1cbae4df46813384604051808481526020018373ffffffffffffffffffffffffffffffffffffffff168152602001828152602001935050505060405180910390a1505050565b6117fa6117f4611ece565b83611fa4565b61184f576040517f08c379a0000000000000000000000000000000000000000000000000000000008152600401808060200182810382526031815260200180613d746031913960400191505060405180910390fd5b61185b84848484612722565b50505050565b606061186c82611eb1565b6118c1576040517f08c379a000000000000000000000000000000000000000000000000000000000815260040180806020018281038252602f815260200180613d24602f913960400191505060405180910390fd5b6000606c60008481526020019081526020016000208054600181600116156101000203166002900480601f01602080910402602001604051908101604052809291908181526020018280546001816001161561010002031660029004801561196a5780601f1061193f5761010080835404028352916020019161196a565b820191906000526020600020905b81548152906001019060200180831161194d57829003601f168201915b50505050509050600061197b611374565b9050600081511415611991578192505050611b2d565b600082511115611a625780826040516020018083805190602001908083835b602083106119d357805182526020820191506020810190506020830392506119b0565b6001836020036101000a03801982511681845116808217855250505050505090500182805190602001908083835b60208310611a245780518252602082019150602081019050602083039250611a01565b6001836020036101000a0380198251168184511680821785525050505050509050019250505060405160208183030381529060405292505050611b2d565b80611a6c85612794565b6040516020018083805190602001908083835b60208310611aa25780518252602082019150602081019050602083039250611a7f565b6001836020036101000a03801982511681845116808217855250505050505090500182805190602001908083835b60208310611af35780518252602082019150602081019050602083039250611ad0565b6001836020036101000a03801982511681845116808217855250505050505090500192505050604051602081830303815290604052925050505b919050565b60006099600083815260200190815260200160002054905060008111611bc0576040517f08c379a00000000000000000000000000000000000000000000000000000000081526004018080602001828103825260148152602001807f417274776f726b206e6f7420666f722073616c6500000000000000000000000081525060200191505060405180910390fd5b803414611c35576040517f08c379a00000000000000000000000000000000000000000000000000000000081526004018080602001828103825260118152602001807f57726f6e6720616d6f756e742073656e7400000000000000000000000000000081525060200191505060405180910390fd5b6000611c408361133d565b90506000611c6c6064611c5e609854346128db90919063ffffffff16565b61296190919063ffffffff16565b9050611c9a609760009054906101000a900473ffffffffffffffffffffffffffffffffffffffff16826129ea565b611cb682611cb18334612ac590919063ffffffff16565b6129ea565b611cc03385610f2b565b611ccb823386611169565b600060996000868152602001908152602001600020819055507f0634626e616f8a7485091cf43f024011ba5d9b8fcbe8eac44a3efe20f7dfb60484833386604051808581526020018473ffffffffffffffffffffffffffffffffffffffff1681526020018373ffffffffffffffffffffffffffffffffffffffff16815260200182815260200194505050505060405180910390a150505050565b600060996000838152602001908152602001600020549050919050565b6000606960008473ffffffffffffffffffffffffffffffffffffffff1673ffffffffffffffffffffffffffffffffffffffff16815260200190815260200160002060008373ffffffffffffffffffffffffffffffffffffffff1673ffffffffffffffffffffffffffffffffffffffff16815260200190815260200160002060009054906101000a900460ff16905092915050565b611e1f8261133d565b73ffffffffffffffffffffffffffffffffffffffff163373ffffffffffffffffffffffffffffffffffffffff1614611e5657600080fd5b8060996000848152602001908152602001600020819055507f6841849bde669f848a4c4da2051a14d8e86abdb072c52dc8c90e72083a274f348282604051808381526020018281526020019250505060405180910390a15050565b6000611ec7826066612b4890919063ffffffff16565b9050919050565b600033905090565b816068600083815260200190815260200160002060006101000a81548173ffffffffffffffffffffffffffffffffffffffff021916908373ffffffffffffffffffffffffffffffffffffffff160217905550808273ffffffffffffffffffffffffffffffffffffffff16611f498361133d565b73ffffffffffffffffffffffffffffffffffffffff167f8c5be1e5ebec7d5bd14f71427d1e84f3dd0314c0f7b2291e5b200ac8c7c3b92560405160405180910390a45050565b6000611f9d82600001612b62565b9050919050565b6000611faf82611eb1565b612004576040517f08c379a000000000000000000000000000000000000000000000000000000000815260040180806020018281038252602c815260200180613b7b602c913960400191505060405180910390fd5b600061200f8361133d565b90508073ffffffffffffffffffffffffffffffffffffffff168473ffffffffffffffffffffffffffffffffffffffff16148061207e57508373ffffffffffffffffffffffffffffffffffffffff1661206684610e90565b73ffffffffffffffffffffffffffffffffffffffff16145b8061208f575061208e8185611d82565b5b91505092915050565b8273ffffffffffffffffffffffffffffffffffffffff166120b88261133d565b73ffffffffffffffffffffffffffffffffffffffff1614612124576040517f08c379a0000000000000000000000000000000000000000000000000000000008152600401808060200182810382526029815260200180613cfb6029913960400191505060405180910390fd5b600073ffffffffffffffffffffffffffffffffffffffff168273ffffffffffffffffffffffffffffffffffffffff1614156121aa576040517f08c379a0000000000000000000000000000000000000000000000000000000008152600401808060200182810382526024815260200180613b316024913960400191505060405180910390fd5b6121b5838383612b73565b6121c0600082611ed6565b61221181606560008673ffffffffffffffffffffffffffffffffffffffff1673ffffffffffffffffffffffffffffffffffffffff168152602001908152602001600020612b7890919063ffffffff16565b5061226381606560008573ffffffffffffffffffffffffffffffffffffffff1673ffffffffffffffffffffffffffffffffffffffff168152602001908152602001600020612b9290919063ffffffff16565b5061227a81836066612bac9092919063ffffffff16565b50808273ffffffffffffffffffffffffffffffffffffffff168473ffffffffffffffffffffffffffffffffffffffff167fddf252ad1be2c89b69c2b068fc378daa952ba7f163c4a11628f55a4df523b3ef60405160405180910390a4505050565b60006122ea8360000183612be1565b60001c905092915050565b600061230030612c64565b15905090565b600060019054906101000a900460ff168061232557506123246122f5565b5b8061233b575060008054906101000a900460ff16155b612390576040517f08c379a000000000000000000000000000000000000000000000000000000000815260040180806020018281038252602e815260200180613c32602e913960400191505060405180910390fd5b60008060019054906101000a900460ff1615905080156123e0576001600060016101000a81548160ff02191690831515021790555060016000806101000a81548160ff0219169083151502179055505b6123e8612c77565b6123f0612d75565b6123fa8383612e83565b801561241b5760008060016101000a81548160ff0219169083151502179055505b505050565b6000806000806124338660000186612fe1565b915091508160001c8160001c9350935050509250929050565b600061245f846000018460001b8461307a565b60001c90509392505050565b600061247982600001613170565b9050919050565b6001816000016000828254019250508190555050565b600081600001549050919050565b600073ffffffffffffffffffffffffffffffffffffffff168273ffffffffffffffffffffffffffffffffffffffff161415612547576040517f08c379a00000000000000000000000000000000000000000000000000000000081526004018080602001828103825260208152602001807f4552433732313a206d696e7420746f20746865207a65726f206164647265737381525060200191505060405180910390fd5b61255081611eb1565b156125c3576040517f08c379a000000000000000000000000000000000000000000000000000000000815260040180806020018281038252601c8152602001807f4552433732313a20746f6b656e20616c7265616479206d696e7465640000000081525060200191505060405180910390fd5b6125cf60008383612b73565b61262081606560008573ffffffffffffffffffffffffffffffffffffffff1673ffffffffffffffffffffffffffffffffffffffff168152602001908152602001600020612b9290919063ffffffff16565b5061263781836066612bac9092919063ffffffff16565b50808273ffffffffffffffffffffffffffffffffffffffff16600073ffffffffffffffffffffffffffffffffffffffff167fddf252ad1be2c89b69c2b068fc378daa952ba7f163c4a11628f55a4df523b3ef60405160405180910390a45050565b6126a182611eb1565b6126f6576040517f08c379a000000000000000000000000000000000000000000000000000000000815260040180806020018281038252602c815260200180613ccf602c913960400191505060405180910390fd5b80606c6000848152602001908152602001600020908051906020019061271d929190613a31565b505050565b61272d848484612098565b61273984848484613181565b61278e576040517f08c379a0000000000000000000000000000000000000000000000000000000008152600401808060200182810382526032815260200180613aff6032913960400191505060405180910390fd5b50505050565b606060008214156127dc576040518060400160405280600181526020017f300000000000000000000000000000000000000000000000000000000000000081525090506128d6565b600082905060005b60008214612806578080600101915050600a82816127fe57fe5b0491506127e4565b60008167ffffffffffffffff8111801561281f57600080fd5b506040519080825280601f01601f1916602001820160405280156128525781602001600182028036833780820191505090505b50905060006001830390508593505b600084146128ce57600a848161287357fe5b0660300160f81b8282806001900393508151811061288d57fe5b60200101907effffffffffffffffffffffffffffffffffffffffffffffffffffffffffffff1916908160001a905350600a84816128c657fe5b049350612861565b819450505050505b919050565b6000808314156128ee576000905061295b565b60008284029050828482816128ff57fe5b0414612956576040517f08c379a0000000000000000000000000000000000000000000000000000000008152600401808060200182810382526021815260200180613c826021913960400191505060405180910390fd5b809150505b92915050565b60008082116129d8576040517f08c379a000000000000000000000000000000000000000000000000000000000815260040180806020018281038252601a8152602001807f536166654d6174683a206469766973696f6e206279207a65726f00000000000081525060200191505060405180910390fd5b8183816129e157fe5b04905092915050565b600015158273ffffffffffffffffffffffffffffffffffffffff166108fc839081150290604051600060405180830381858888f1935050505015151415612ac157612a7d81609a60008573ffffffffffffffffffffffffffffffffffffffff1673ffffffffffffffffffffffffffffffffffffffff1681526020019081526020016000205461339a90919063ffffffff16565b609a60008473ffffffffffffffffffffffffffffffffffffffff1673ffffffffffffffffffffffffffffffffffffffff168152602001908152602001600020819055505b5050565b600082821115612b3d576040517f08c379a000000000000000000000000000000000000000000000000000000000815260040180806020018281038252601e8152602001807f536166654d6174683a207375627472616374696f6e206f766572666c6f77000081525060200191505060405180910390fd5b818303905092915050565b6000612b5a836000018360001b613422565b905092915050565b600081600001805490509050919050565b505050565b6000612b8a836000018360001b613445565b905092915050565b6000612ba4836000018360001b61352d565b905092915050565b6000612bd8846000018460001b8473ffffffffffffffffffffffffffffffffffffffff1660001b61359d565b90509392505050565b600081836000018054905011612c42576040517f08c379a0000000000000000000000000000000000000000000000000000000008152600401808060200182810382526022815260200180613add6022913960400191505060405180910390fd5b826000018281548110612c5157fe5b9060005260206000200154905092915050565b600080823b905060008111915050919050565b600060019054906101000a900460ff1680612c965750612c956122f5565b5b80612cac575060008054906101000a900460ff16155b612d01576040517f08c379a000000000000000000000000000000000000000000000000000000000815260040180806020018281038252602e815260200180613c32602e913960400191505060405180910390fd5b60008060019054906101000a900460ff161590508015612d51576001600060016101000a81548160ff02191690831515021790555060016000806101000a81548160ff0219169083151502179055505b8015612d725760008060016101000a81548160ff0219169083151502179055505b50565b600060019054906101000a900460ff1680612d945750612d936122f5565b5b80612daa575060008054906101000a900460ff16155b612dff576040517f08c379a000000000000000000000000000000000000000000000000000000000815260040180806020018281038252602e815260200180613c32602e913960400191505060405180910390fd5b60008060019054906101000a900460ff161590508015612e4f576001600060016101000a81548160ff02191690831515021790555060016000806101000a81548160ff0219169083151502179055505b612e5f6301ffc9a760e01b613679565b8015612e805760008060016101000a81548160ff0219169083151502179055505b50565b600060019054906101000a900460ff1680612ea25750612ea16122f5565b5b80612eb8575060008054906101000a900460ff16155b612f0d576040517f08c379a000000000000000000000000000000000000000000000000000000000815260040180806020018281038252602e815260200180613c32602e913960400191505060405180910390fd5b60008060019054906101000a900460ff161590508015612f5d576001600060016101000a81548160ff02191690831515021790555060016000806101000a81548160ff0219169083151502179055505b82606a9080519060200190612f73929190613a31565b5081606b9080519060200190612f8a929190613a31565b50612f9b6380ac58cd60e01b613679565b612fab635b5e139f60e01b613679565b612fbb63780e9d6360e01b613679565b8015612fdc5760008060016101000a81548160ff0219169083151502179055505b505050565b60008082846000018054905011613043576040517f08c379a0000000000000000000000000000000000000000000000000000000008152600401808060200182810382526022815260200180613c606022913960400191505060405180910390fd5b600084600001848154811061305457fe5b906000526020600020906002020190508060000154816001015492509250509250929050565b60008084600101600085815260200190815260200160002054905060008114158390613141576040517f08c379a00000000000000000000000000000000000000000000000000000000081526004018080602001828103825283818151815260200191508051906020019080838360005b838110156131065780820151818401526020810190506130eb565b50505050905090810190601f1680156131335780820380516001836020036101000a031916815260200191505b509250505060405180910390fd5b5084600001600182038154811061315457fe5b9060005260206000209060020201600101549150509392505050565b600081600001805490509050919050565b60006131a28473ffffffffffffffffffffffffffffffffffffffff16612c64565b6131af5760019050613392565b600061331963150b7a0260e01b6131c4611ece565b888787604051602401808573ffffffffffffffffffffffffffffffffffffffff1681526020018473ffffffffffffffffffffffffffffffffffffffff16815260200183815260200180602001828103825283818151815260200191508051906020019080838360005b8381101561324857808201518184015260208101905061322d565b50505050905090810190601f1680156132755780820380516001836020036101000a031916815260200191505b5095505050505050604051602081830303815290604052907bffffffffffffffffffffffffffffffffffffffffffffffffffffffff19166020820180517bffffffffffffffffffffffffffffffffffffffffffffffffffffffff8381831617835250505050604051806060016040528060328152602001613aff603291398773ffffffffffffffffffffffffffffffffffffffff166137829092919063ffffffff16565b9050600081806020019051602081101561333257600080fd5b8101908080519060200190929190505050905063150b7a0260e01b7bffffffffffffffffffffffffffffffffffffffffffffffffffffffff1916817bffffffffffffffffffffffffffffffffffffffffffffffffffffffff191614925050505b949350505050565b600080828401905083811015613418576040517f08c379a000000000000000000000000000000000000000000000000000000000815260040180806020018281038252601b8152602001807f536166654d6174683a206164646974696f6e206f766572666c6f77000000000081525060200191505060405180910390fd5b8091505092915050565b600080836001016000848152602001908152602001600020541415905092915050565b60008083600101600084815260200190815260200160002054905060008114613521576000600182039050600060018660000180549050039050600086600001828154811061349057fe5b90600052602060002001549050808760000184815481106134ad57fe5b90600052602060002001819055506001830187600101600083815260200190815260200160002081905550866000018054806134e557fe5b60019003818190600052602060002001600090559055866001016000878152602001908152602001600020600090556001945050505050613527565b60009150505b92915050565b6000613539838361379a565b613592578260000182908060018154018082558091505060019003906000526020600020016000909190919091505582600001805490508360010160008481526020019081526020016000208190555060019050613597565b600090505b92915050565b600080846001016000858152602001908152602001600020549050600081141561364457846000016040518060400160405280868152602001858152509080600181540180825580915050600190039060005260206000209060020201600090919091909150600082015181600001556020820151816001015550508460000180549050856001016000868152602001908152602001600020819055506001915050613672565b8285600001600183038154811061365757fe5b90600052602060002090600202016001018190555060009150505b9392505050565b63ffffffff60e01b817bffffffffffffffffffffffffffffffffffffffffffffffffffffffff19161415613715576040517f08c379a000000000000000000000000000000000000000000000000000000000815260040180806020018281038252601c8152602001807f4552433136353a20696e76616c696420696e746572666163652069640000000081525060200191505060405180910390fd5b600160336000837bffffffffffffffffffffffffffffffffffffffffffffffffffffffff19167bffffffffffffffffffffffffffffffffffffffffffffffffffffffff1916815260200190815260200160002060006101000a81548160ff02191690831515021790555050565b606061379184846000856137bd565b90509392505050565b600080836001016000848152602001908152602001600020541415905092915050565b606082471015613818576040517f08c379a0000000000000000000000000000000000000000000000000000000008152600401808060200182810382526026815260200180613b556026913960400191505060405180910390fd5b61382185612c64565b613893576040517f08c379a000000000000000000000000000000000000000000000000000000000815260040180806020018281038252601d8152602001807f416464726573733a2063616c6c20746f206e6f6e2d636f6e747261637400000081525060200191505060405180910390fd5b6000808673ffffffffffffffffffffffffffffffffffffffff1685876040518082805190602001908083835b602083106138e257805182526020820191506020810190506020830392506138bf565b6001836020036101000a03801982511681845116808217855250505050505090500191505060006040518083038185875af1925050503d8060008114613944576040519150601f19603f3d011682016040523d82523d6000602084013e613949565b606091505b5091509150613959828286613965565b92505050949350505050565b6060831561397557829050613a2a565b6000835111156139885782518084602001fd5b816040517f08c379a00000000000000000000000000000000000000000000000000000000081526004018080602001828103825283818151815260200191508051906020019080838360005b838110156139ef5780820151818401526020810190506139d4565b50505050905090810190601f168015613a1c5780820380516001836020036101000a031916815260200191505b509250505060405180910390fd5b9392505050565b828054600181600116156101000203166002900490600052602060002090601f016020900481019282613a675760008555613aae565b82601f10613a8057805160ff1916838001178555613aae565b82800160010185558215613aae579182015b82811115613aad578251825591602001919060010190613a92565b5b509050613abb9190613abf565b5090565b5b80821115613ad8576000816000905550600101613ac0565b509056fe456e756d657261626c655365743a20696e646578206f7574206f6620626f756e64734552433732313a207472616e7366657220746f206e6f6e20455243373231526563656976657220696d706c656d656e7465724552433732313a207472616e7366657220746f20746865207a65726f2061646472657373416464726573733a20696e73756666696369656e742062616c616e636520666f722063616c6c4552433732313a206f70657261746f7220717565727920666f72206e6f6e6578697374656e7420746f6b656e4552433732313a20617070726f76652063616c6c6572206973206e6f74206f776e6572206e6f7220617070726f76656420666f7220616c6c4552433732313a2062616c616e636520717565727920666f7220746865207a65726f20616464726573734552433732313a206f776e657220717565727920666f72206e6f6e6578697374656e7420746f6b656e496e697469616c697a61626c653a20636f6e747261637420697320616c726561647920696e697469616c697a6564456e756d657261626c654d61703a20696e646578206f7574206f6620626f756e6473536166654d6174683a206d756c7469706c69636174696f6e206f766572666c6f774552433732313a20617070726f76656420717565727920666f72206e6f6e6578697374656e7420746f6b656e4552433732314d657461646174613a2055524920736574206f66206e6f6e6578697374656e7420746f6b656e4552433732313a207472616e73666572206f6620746f6b656e2074686174206973206e6f74206f776e4552433732314d657461646174613a2055524920717565727920666f72206e6f6e6578697374656e7420746f6b656e4552433732313a20617070726f76616c20746f2063757272656e74206f776e65724552433732313a207472616e736665722063616c6c6572206973206e6f74206f776e6572206e6f7220617070726f766564a2646970667358221220ffa55c4c4fb0809b253c75a31db705671fab6e19945858a91ebbeebe458fc86f64736f6c63430007060033",
  "linkReferences": {},
  "deployedLinkReferences": {}
}